:03000000020216E3
:0C021600787FE4F6D8FD75815C02025D83
:10040F00C0F9A4B0999282F880908040201008041F
:02041F000201D8
:1002A20002510000024C00000256000002540000FD
:1002B2000E0A68656C6C6F20776F726C64210A009D
:1002C20020321A3000000000000000000000000090
:1002D200000000000000000000000000000000001C
:1002E200000000000000000000000000000000000C
:0902F2000000000000024F0000B2
:10000300D3EF9400EE940040147D727C00ED1D70DC
:0D001300011CED4C70F7EF1F70E61E80E33E
:0100200022BD
:0E042100759007C2A0C2A17F647E0002000396
:1003AB0075900ED2A0C2A17F267E00120003C2A0C0
:0903BB00C2A17F467E000200038E
:1003C40075900CD2A0C2A17F327E00120003C2A09D
:0903D400C2A17F327E0002000389
:1003DD00759008D2A0C2A17F5A7E00120003C2A060
:0903ED00C2A17F0A7E0002000398
:1002FC0020B2147F057E0012000320B205E4F551F4
:10030C00F55220B24280FB20B3337F0A7E001200EC
:10031C000320B3240552E55270020551AE51FF7C07
:10032C00007D0412018B8C518D52E55245517008A1
:10033C000552E5527002055120B30C80FB20B60724
:08034C007F147E001200032261
:1003F600758920758920758DFD758BFDD28EC29FFE
:09040600D29ED29CD2AFD2AC22EE
:08042F008F993099FDC299225A
:100386008B5A8A5B895CAB5AAA5BA95C12016060D6
:1003960013055CE55C7002055B14F9120160FF123F
:0503A600042F80E2229B
:03002300020026B2
:10002600C0E0C0F0C083C082C0D075D000C000C0A0
:1000360001C002C003C004C005C006C00720980363
:0300460002014074
:10004900755800755900AF99754F008F50E5506488
:1000590021454F6021741A2559F8A650C2987F018D
:100069007E00120003AF99754F008F500559E5596D
:1000790070DB055880D7AF59741A2FF87621741B95
:100089002FF87600C298E51EB430028027E51EB429
:1000990031087551007552018020E51EB43208758A
:1000A90051007552028013E51EB43308755100756D
:1000B90052038006755100755200E51AD3943640F3
:1000C90008754C00754D008006754C00754D01E5AD
:1000D9004D454C603EE51A24D0FFE434FFFE7C0018
:1000E9007D0A120179E51B24D0FDEC34FFCD2FF5F3
:1000F90057ED3EF556E51C24D0FFE434FFFE7D0A9A
:10010900120179E51D24D0FDEC34FFCD2FF555ED15
:100119003EF5547B007A00791A12038675580075EA
:100129005931741A2559F87600E55915597002158F
:0701390058E559455870EB31
:10014000309902C299D007D006D005D004D003D090
:1001500002D001D000D0D0D082D083D0F0D0E03215
:100354001203F61202FCE5517023E55214600F14E7
:1003640060111460132403701412042180E5120335
:10037400AB80E01203C480DB1203DD80D6120421BB
:0203840080D126
:10022200020354E493A3F8E493A34003F68001F29B
:1002320008DFF48029E493A3F85407240CC8C333DD
:10024200C4540F4420C8834004F456800146F6DFAC
:10025200E4800B01020408102040809002A2E47E98
:10026200019360BCA3FF543F30E509541FFEE493A1
:10027200A360010ECF54C025E060A840B8E493A368
:10028200FAE493A3F8E493A3C8C582C8CAC583CA93
:10029200F0A3C8C582C8CAC583CADFE9DEE780BE4B
:0102FB000002
:10016000BB010689828A83E0225002E722BBFE029D
:09017000E32289828A83E49322D0
:10017900EF8DF0A4A8F0CF8CF0A428CE8DF0A42E9A
:02018900FE2254
:10018B00C2D5EC30E709B2D5E4C39DFDE49CFCEE8F
:10019B0030E715B2D5E4C39FFFE49EFE1201C1C345
:1001AB00E49DFDE49CFC80031201C130D507C3E440
:0601BB009FFFE49EFE22FE
:1001C100BC000BBE0029EF8DF084FFADF022E4CC22
:1001D100F875F008EF2FFFEE33FEEC33FCEE9DECEB
:1001E100984005FCEE9DFE0FD5F0E9E4CEFD22ED31
:1001F100F8F5F0EE8420D21CFEADF075F008EF2F7B
:10020100FFED33FD4007985006D5F0F222C398FD6B
:050211000FD5F0EA2208
:00000001FF
