:030000000203D127
:0C03D100787FE4F6D8FD75816202041804
:1004C1000E3768656C6C6F20776F726C64210A005F
:1004D10014213000000000000000000000000000B6
:1004E1000000000000001445300000000000000082
:1004F100000000000000000000000000025D00009C
:10050100025B00000259000002610000025F00006E
:0605110002350000C100EC
:1005A300A2009290A290B39291A291B392927FF4FF
:0205B3007E01C7
:1005B500D3EF9400EE940040147D727C00ED1D7025
:0D05C500011CED4C70F7EF1F70E61E80E387
:0105D2002206
:0E066900759007C2A0C2A17F647E000205B595
:1000030075900ED2A0C2A17F267E001205B5C2A0B4
:09001300C2A17F467E000205B582
:1006210075900CD2A0C2A17F327E001205B5C2A086
:09063100C2A17F327E000205B572
:10063A00759008D2A0C2A17F5A7E001205B5C2A049
:09064A00C2A17F0A7E000205B581
:1005D300C2A6E4FEC2A7EF3392A5EF25E0FFD2A7A0
:1005E3000EBE08F0E4FEC2A7ED3392A5ED25E0FDB3
:0805F300D2A70EBE08F0D2A64B
:0105FB0022DD
:10056900E4FBFA7D017F0C1205D3E4FD7F0F120530
:10057900D37DFF7F091205D37D077F0B1205D37D3C
:10058900047F0A1205D30BAF037D091205D30BBBF8
:0905990000010AEB64094A70EE4E
:0105A2002236
:10045D00AE5FAF607C007D0A1202A87F011205D34A
:10046D00AE5FAF607C007D0A1202A8AD077F02125D
:10047D0005D3AE61AF627C007D0A1202A8ED248027
:10048D00FD7F031205D3AE61AF627C007D0A1202BF
:10049D00A8AD077F041205D37D0F7F051205D37D0F
:1004AD000F7F061205D37D0F7F071205D3AD5C7F3D
:0404BD00080205D359
:10065300438920758DFD758BFDD28EC29FD29ED2AC
:060663009CD2AFD2AC22D4
:080690008F993099FDC29922F7
:1005FC008B0D8A0E890FAB0DAA0EA90F12027D600E
:10060C0013050FE50F7002050E14F912027DFF128F
:05061C00069080E222BF
:03002300020026B2
:10002600C0E0C0F0C083C082C0D075D000C000C0A0
:1000360001C002C003C004C005C006C00720980363
:0300460002014074
:10004900750B00750C00AF99755D008F5EE55E64F8
:1000590021455D60217445250CF8A65EC2987F0193
:100069007E001205B5AF99755D008F5E050CE50C34
:1000790070DB050B80D7AF0C74452FF876217446D9
:100089002FF87600C298E549B430028027E549B4D3
:100099003108755B00755C018020E549B43208754B
:1000A9005B00755C028013E549B43308755B007524
:1000B9005C038006755B00755C00E545C3943640BA
:1000C90008755900755A008006755900755A01E579
:1000D9005A4559603EE54524D0FFE434FFFE7C00D3
:1000E9007D0A120296E54624D0FDEC34FFCD2FF5AA
:1000F90062ED3EF561E54724D0FFE434FFFE7D0A59
:10010900120296E54824D0FDEC34FFCD2FF560EDC1
:100119003EF55F7B007A0079451205FC750B007589
:100129000C137445250CF87600E50C150C700215B6
:070139000BE50C450B70EB18
:10014000309902C299D007D006D005D004D003D090
:1001500002D001D000D0D0D082D083D0F0D0E03215
:0E067700C2AC7B007A0079371205FCD2AC22AF
:0B068500438901E4F58CF58AD28C2239
:10033300208D030203D0C28D0536E53670020535E4
:10034300640E453560030203D0F535F536E55A45AD
:1003530059607AE55C455B6074E5624561700FE561
:1003630060455F7009F55BF55CF559F55A22E56266
:1003730045617016D3E5609400E55F648094804026
:1003830009E56015607002155F22D3E5629400E50C
:1003930061648094804014E560455F700EF55F757D
:1003A300603BE56215627002156122D3E562940039
:1003B300E561648094804015D3E5609400E55F6453
:0E03C3008094804008E56015607002155F228E
:1001600020B2177F057E001205B520B205E4F55BCD
:10017000F55C30B20302027C80F820B3367F0F7E3C
:10018000001205B520B324055CE55C7002055BAE8A
:100190005BFF7C007D041202A88C5B8D5CE55C45F6
:1001A0005B7008055CE55C7002055B30B30302021E
:1001B0007C80F830B60302027C7FC87E001205B551
:1001C00030B60302027C20B6071205A3B20080F607
:1001D000E4F561F562F55FF56020B60302027C127A
:1001E000045D1205A3B20020B2397F0F7E00120514
:1001F000B520B22F741E2560F560E4355FF55FE52C
:1002000060643C455F701CF55FF5600562E56270F7
:10021000020561C3943CE561648094804005E4F587
:1002200061F56220B3437F0F7E001205B520B3391C
:10023000E56245617012E560455F700CF55F7560C1
:100240001EF56175623B8021E560455F700FF55FCB
:1002500075601EE562156270101561800C74E225F0
:1002600060F56074FF355FF55F30B7030201D97F39
:0D027000147E001205B5755900755A012263
:10051800120653120569120685120160E55B702008
:10052800E55C14600C14600E1460102403701180D4
:100538000F120003800D120621800812063A80036C
:1005480012066912045D120333AE35AF367C007DA6
:10055800021202A8ED64014C70BFB29012067780B7
:01056800B8DA
:1003DD00020518E493A3F8E493A34003F68001F219
:1003ED0008DFF48029E493A3F85407240CC8C33321
:1003FD00C4540F4420C8834004F456800146F6DFF0
:10040D00E4800B01020408102040809004C1E47EBA
:10041D00019360BCA3FF543F30E509541FFEE493E4
:10042D00A360010ECF54C025E060A840B8E493A3AB
:10043D00FAE493A3F8E493A3C8C582C8CAC583CAD6
:10044D00F0A3C8C582C8CAC583CADFE9DEE780BE8E
:0105170000E3
:10027D00BB010689828A83E0225002E722BBFE027F
:09028D00E32289828A83E49322B2
:10029600EF8DF0A4A8F0CF8CF0A428CE8DF0A42E7C
:0202A600FE2236
:1002A800C2D5EC30E709B2D5E4C39DFDE49CFCEE71
:1002B80030E715B2D5E4C39FFFE49EFE1202DEC309
:1002C800E49DFDE49CFC80031202DE30D507C3E404
:0602D8009FFFE49EFE22E0
:1002DE00BC000BBE0029EF8DF084FFADF022E4CC04
:1002EE00F875F008EF2FFFEE33FEEC33FCEE9DECCD
:1002FE00984005FCEE9DFE0FD5F0E9E4CEFD22ED13
:10030E00F8F5F0EE8420D21CFEADF075F008EF2F5C
:10031E00FFED33FD4007985006D5F0F222C398FD4D
:05032E000FD5F0EA22EA
:00000001FF
