:030000000204B047
:0C04B000787FE4F6D8FD7581620204F745
:100598000E3768656C6C6F20776F726C64210A0087
:1005A80014213000000000000000000000000000DE
:1005B80000000000000014453000000000000000AA
:1005C800000000000000000000000000025D0000C4
:1005D800025B00000259000002610063025F0063D1
:0605E80002350000C10015
:0906A3007F0C12067A7FF47E013F
:1006AC00D3EF9400EE940040147D727C00ED1D702D
:0D06BC00011CED4C70F7EF1F70E61E80E38F
:0106C900220E
:0E073700759007C2A0C2A17F647E000206ACCE
:1000030075900ED2A0C2A17F327E001206ACC2A0B0
:09001300C2A17F467E000206AC8A
:1006EF0075900CD2A0C2A17F467E001206ACC2A0AC
:0906FF00C2A17F327E000206ACAC
:10070800759008D2A0C2A17F5A7E001206ACC2A082
:09071800C2A17F0A7E000206ACBA
:10067A00C2A6E4FEC2A7EF3392A5EF25E0FFD2A7F8
:10068A000EBE08F0E4FEC2A7ED3392A5ED25E0FD0B
:08069A00D2A70EBE08F0D2A6A3
:0106A2002235
:10064000E4FBFA7D017F0C12067AE4FD7F0F1206AF
:100650007A7DFF7F0912067A7D077F0B12067A7D6D
:10066000047F0A12067A0BAF037D0912067A0BBBD0
:0906700000010AEB64094A70EE76
:01067900225E
:10041700E5606463455F6008E56264634561702574
:10042700755F00756063756100756263E4FD7F0148
:1004370012067AE4FD7F0212067AE4FD7F031206B4
:100447007AE4FD8043AE5FAF607C007D0A1202DE76
:100457007F0112067AAE5FAF607C007D0A1202DE72
:10046700AD077F0212067AAE61AF627C007D0A1289
:1004770002DEED2480FD7F0312067AAE61AF627C57
:10048700007D0A1202DEAD077F0412067A7D0F7F18
:100497000512067A7D0F7F0612067A7D0F7F0712F7
:0904A700067AAD5C7F0802067ABA
:10072100438920758DFD758BFDD28EC29FD29ED2DD
:060731009CD2AFD2AC2205
:080750008F993099FDC2992236
:1006CA008B088A09890AAB08AA09A90A1202B36027
:1006DA0013050AE50A7002050914F91202B3FF129A
:0506EA00075080E22230
:0300230002017B5C
:10017B00C0E0C0F0C0D075D000C000C004C005C046
:09018B0006C00720980302029D42
:10019400750B00750C00AF99755D008F5EE55E64AC
:1001A4005B455D600302029BE55E645D455D602125
:1001B4007445250CF8A65EC2987F017E001206AC39
:1001C400AF99755D008F5E050CE50C70DB050B8047
:1001D400D7AF0C74452FF8765D74462FF87600C2BD
:1001E40098E54AB430028027E54AB43108755B00CB
:1001F400755C018020E54AB43208755B00755C02C9
:100204008013E54AB43308755B00755C038006759A
:100214005B00755C00E546C394364014755900755F
:100224005A00756100756263755F007560638006CE
:10023400755900755A01E55A4559603EE54624D082
:10024400FFE434FFFE7C007D0A1202CCE54724D093
:10025400FDEC34FFCD2FF562ED3EF561E54824D089
:10026400FFE434FFFE7D0A1202CCE54924D0FDEC04
:1002740034FFCD2FF560ED3EF55F750B00750C1363
:100284007445250CF87600E50C150C7002150BE589
:090294000C450B70EB8002C298CE
:10029D00309902C299D007D006D005D004D000D035
:0602AD00D0D0F0D0E032D9
:10053C00C2AC75215BAE61AF627C007D0A1202DE3B
:10054C00EF2430F522AE61AF627C007D0A1202DE30
:10055C00ED2430F523AE5FAF607C007D0A1202DE25
:10056C00EF2430F524AE5FAF607C007D0A1202DE12
:10057C00ED2430F525E55C2430F52675275DE4F592
:0C058C0028FB7A0079211206CAD2AC22AA
:0B074500438901E4F58CF58AD28C2278
:10036900208D03020416C28D0536E5367002053567
:10037900640E45356003020416F535F536E55A4530
:10038900597003020416E55C455B7003020416E527
:100399006245617019E560455F7013F55BF55CF5C1
:1003A90059F55AF55F756063F56175626322E56217
:1003B90045617016D3E5609400E55F6480948040E0
:1003C90009E56015607002155F22D3E5629400E5C6
:1003D90061648094804014E560455F700EF55F7537
:1003E900603BE56215627002156122D3E5629400F3
:1003F900E561648094804015D3E5609400E55F640D
:0E0409008094804008E56015607002155F2247
:1000260020B2177F057E001206AC20B205E4F55B10
:10003600F55C30B20302017A80F820B3367F0F7E7A
:10004600001206AC20B324055CE55C7002055BAECD
:100056005BFF7C007D041202DE8C5B8D5CE55C45FB
:100066005B7008055CE55C7002055B30B30302015A
:100076007A80F830B60302017A7FC87E001206AC99
:1000860030B60302017A20B615A2009290A290B370
:100096009291A291B392921206A8B20080E8E4F57A
:1000A60061F562F55FF56020B6030201731204176D
:1000B600A2009290A290B39291A291B392927D01E6
:1000C6001206A3E4FD1206A3B200A2009290A2902B
:1000D600B39291A291B3929220B2397F0F7E001211
:1000E60006AC20B22F741E2560F560E4355FF55F1F
:1000F600E560643C455F701CF55FF5600562E5628E
:1001060070020561C3943CE561648094804005E417
:10011600F561F56220B3437F0F7E001206AC20B373
:1001260039E56245617012E560455F700CF55F75F3
:10013600601EF56175623B8021E560455F700FF5D5
:100146005F75601EE562156270101561800C74E2C1
:100156002560F56074FF355FF55F30B7030200ADCB
:100166007F147E001206AC755900755A017D017F19
:050176000C12067A22C4
:1005EF00120721120640120745120026E55B702004
:1005FF00E55C14600C14600E1460102403701180FD
:10060F000F120003800D1206EF80081207088003F7
:10061F00120737120417120369AE35AF367C007D0F
:10062F00021202DEED64014C70BFB29012053C80E5
:01063F00B802
:1004BC000205EFE493A3F8E493A34003F68001F262
:1004CC0008DFF48029E493A3F85407240CC8C33341
:1004DC00C4540F4420C8834004F456800146F6DF10
:1004EC00E4800B0102040810204080900598E47E03
:1004FC00019360BCA3FF543F30E509541FFEE49305
:10050C00A360010ECF54C025E060A840B8E493A3CB
:10051C00FAE493A3F8E493A3C8C582C8CAC583CAF6
:10052C00F0A3C8C582C8CAC583CADFE9DEE780BEAE
:0105EE00000C
:1002B300BB010689828A83E0225002E722BBFE0249
:0902C300E32289828A83E493227C
:1002CC00EF8DF0A4A8F0CF8CF0A428CE8DF0A42E46
:0202DC00FE2200
:1002DE00C2D5EC30E709B2D5E4C39DFDE49CFCEE3B
:1002EE0030E715B2D5E4C39FFFE49EFE120314C39C
:1002FE00E49DFDE49CFC800312031430D507C3E497
:06030E009FFFE49EFE22A9
:10031400BC000BBE0029EF8DF084FFADF022E4CCCD
:10032400F875F008EF2FFFEE33FEEC33FCEE9DEC96
:10033400984005FCEE9DFE0FD5F0E9E4CEFD22EDDC
:10034400F8F5F0EE8420D21CFEADF075F008EF2F26
:10035400FFED33FD4007985006D5F0F222C398FD17
:050364000FD5F0EA22B4
:00000001FF
