:030000000200CC2F
:0C00CC00787FE4F6D8FD75814E02011328
:100158000E0868656C6C6F20776F726C64210A00FA
:1001680020321630000000000000000000000000EF
:100178000000000000000000000000000000000077
:100188000000000000000000000000000000000067
:0901980000000000000248000014
:10000300D3EF9400EE940040147D727C00ED1D70DC
:0D001300011CED4C70F7EF1F70E61E80E33E
:0100200022BD
:1001C700758920758920758DFD758BFDD28EC29F2F
:0901D700D29ED29CD2AFD2AC2220
:0801F9008F993099FDC2992293
:1001A2008B4C8A4D894EAB4CAA4DA94E1201E06090
:1001B20013054EE54E7002054D14F91201E0FF12CF
:0501C20001F980E222BA
:03002300020026B2
:10002600C0E0C083C082C0D075D000C000C001C08F
:0E00360002C003C004C005C006C00730986AAF
:10004400754A00754B00AF997548008F49E54964BE
:1000540021454860217416254BF8A649C2987F01B2
:100064007E00120003AF997548008F49054BE54B9C
:1000740070DB054A80D77416254BF87621C2987B2D
:10008400007A0079161201A2754A00754B31741674
:10009400254BF87600E54B154B7002154AE54B45A8
:0A00A4004A70EB7F647E0012000337
:1000AE00309902C299D007D006D005D004D003D023
:0E00BE0002D001D000D0D0D082D083D0E0326A
:070201001201C7C29080FC4E
:1000D800020201E493A3F8E493A34003F68001F23B
:1000E80008DFF48029E493A3F85407240CC8C33329
:1000F800C4540F4420C8834004F456800146F6DFF8
:10010800E4800B0102040810204080900158E47E2E
:10011800019360BCA3FF543F30E509541FFEE493EC
:10012800A360010ECF54C025E060A840B8E493A3B3
:10013800FAE493A3F8E493A3C8C582C8CAC583CADE
:10014800F0A3C8C582C8CAC583CADFE9DEE780BE96
:0101A100005D
:1001E000BB010689828A83E0225002E722BBFE021D
:0901F000E32289828A83E4932250
:00000001FF
