:030000000203CF29
:0C03CF00787FE4F6D8FD75816202041608
:10051B000E3768656C6C6F20776F726C64210A0004
:10052B00142130000000000000000000000000005B
:10053B000000000000001445300000000000000027
:10054B00000000000000000000000000025D000041
:10055B00025B00000259000002610063025F00634E
:06056B0002350000C10092
:1005FD00A2009290A290B39291A291B392927FF4A5
:02060D007E016C
:10060F00D3EF9400EE940040147D727C00ED1D70CA
:0D061F00011CED4C70F7EF1F70E61E80E32C
:01062C0022AB
:0E06C300759007C2A0C2A17F647E0002060FE0
:1000030075900ED2A0C2A17F267E0012060FC2A059
:09001300C2A17F467E0002060F27
:10067B0075900CD2A0C2A17F327E0012060FC2A0D1
:09068B00C2A17F327E0002060FBD
:10069400759008D2A0C2A17F5A7E0012060FC2A094
:0906A400C2A17F0A7E0002060FCC
:10062D00C2A6E4FEC2A7EF3392A5EF25E0FFD2A745
:10063D000EBE08F0E4FEC2A7ED3392A5ED25E0FD58
:08064D00D2A70EBE08F0D2A6F0
:010655002282
:1005C300E4FBFA7D017F0C12062DE4FD7F0F12067A
:1005D3002D7DFF7F0912062D7D077F0B12062D7DD2
:1005E300047F0A12062D0BAF037D0912062D0BBBE8
:0905F30000010AEB64094A70EEF4
:0105FC0022DC
:10045B00AE5FAF607C007D0A1202A67F0112062DF3
:10046B00AE5FAF607C007D0A1202A6AD077F021261
:10047B00062DAE61AF627C007D0A1202A6ED2480D0
:10048B00FD7F0312062DAE61AF627C007D0A120266
:10049B00A6AD077F0412062D7D0F7F0512062D7D5D
:1004AB000F7F0612062D7D0F7F0712062DAD5C7F89
:0404BB000802062D00
:1006AD00438920758DFD758BFDD28EC29FD29ED252
:0606BD009CD2AFD2AC227A
:0806DC008F993099FDC29922AB
:100656008B088A09890AAB08AA09A90A12027B60D3
:1006660013050AE50A7002050914F912027BFF1246
:0506760006DC80E22219
:03002300020026B2
:10002600C0E0C0F0C0D075D000C000C004C005C09C
:0900360006C007209803020148EE
:10003F00750B00750C00AF99755D008F5EE55E6402
:10004F005B455D6003020146E55E645D455D6021D1
:10005F007445250CF8A65EC2987F017E0012060F2C
:10006F00AF99755D008F5E050CE50C70DB050B809D
:10007F00D7AF0C74452FF8765D74462FF87600C213
:10008F0098E54AB430028027E54AB43108755B0021
:10009F00755C018020E54AB43208755B00755C021F
:1000AF008013E54AB43308755B00755C03800675F1
:1000BF005B00755C00E546C39436401475590075B6
:1000CF005A00756100756263755F00756063800625
:1000DF00755900755A01E55A4559603EE54624D0D9
:1000EF00FFE434FFFE7C007D0A120294E54724D022
:1000FF00FDEC34FFCD2FF562ED3EF561E54824D0E0
:10010F00FFE434FFFE7D0A120294E54924D0FDEC92
:10011F0034FFCD2FF560ED3EF55F750B00750C13B9
:10012F007445250CF87600E50C150C7002150BE5DF
:09013F000C450B70EB8002C29824
:10014800309902C299D007D006D005D004D000D08B
:06015800D0D0F0D0E0322F
:1004BF00C2AC75215BAE61AF627C007D0A1202A6F1
:1004CF00EF2430F522AE61AF627C007D0A1202A6E6
:1004DF00ED2430F523AE5FAF607C007D0A1202A6DB
:1004EF00EF2430F524AE5FAF607C007D0A1202A6C8
:1004FF00ED2430F525E55C2430F52675275DE4F510
:0C050F0028FB7A007921120656D2AC229B
:0B06D100438901E4F58CF58AD28C22ED
:10033100208D030203CEC28D0536E53670020535E8
:10034100640E453560030203CEF535F536E55A45B1
:1003510059607AE55C455B6074E5624561700FE563
:1003610060455F7009F55BF55CF559F55A22E56268
:1003710045617016D3E5609400E55F648094804028
:1003810009E56015607002155F22D3E5629400E50E
:1003910061648094804014E560455F700EF55F757F
:1003A100603BE56215627002156122D3E56294003B
:1003B100E561648094804015D3E5609400E55F6455
:0E03C1008094804008E56015607002155F2290
:10015E0020B2177F057E0012060F20B205E4F55B74
:10016E00F55C30B20302027A80F820B3367F0F7E40
:10017E000012060F20B324055CE55C7002055BAE31
:10018E005BFF7C007D041202A68C5B8D5CE55C45FA
:10019E005B7008055CE55C7002055B30B303020220
:1001AE007A80F830B60302027A7FC87E0012060FFC
:1001BE0030B60302027A20B6071205FDB20080F6B1
:1001CE00E4F561F562F55FF56020B60302027A127E
:1001DE00045B1205FDB20020B2397F0F7E001206BD
:1001EE000F20B22F741E2560F560E4355FF55FE5D4
:1001FE0060643C455F701CF55FF5600562E56270FA
:10020E00020561C3943CE561648094804005E4F589
:10021E0061F56220B3437F0F7E0012060F20B339C3
:10022E00E56245617012E560455F700CF55F7560C3
:10023E001EF56175623B8021E560455F700FF55FCD
:10024E0075601EE562156270101561800C74E225F2
:10025E0060F56074FF355FF55F30B7030201D77F3D
:0D026E00147E0012060F755900755A01220A
:100572001206AD1205C31206D112015EE55B7020B0
:10058200E55C14600C14600E14601024037011807A
:100592000F120003800D12067B800812069480035E
:1005A2001206C312045B120331AE35AF367C007DF6
:1005B200021202A6ED64014C70BFB2901204BF8019
:0105C200B880
:1003DB00020572E493A3F8E493A34003F68001F2C1
:1003EB0008DFF48029E493A3F85407240CC8C33323
:1003FB00C4540F4420C8834004F456800146F6DFF2
:10040B00E4800B010204081020408090051BE47E61
:10041B00019360BCA3FF543F30E509541FFEE493E6
:10042B00A360010ECF54C025E060A840B8E493A3AD
:10043B00FAE493A3F8E493A3C8C582C8CAC583CAD8
:10044B00F0A3C8C582C8CAC583CADFE9DEE780BE90
:010571000089
:10027B00BB010689828A83E0225002E722BBFE0281
:09028B00E32289828A83E49322B4
:10029400EF8DF0A4A8F0CF8CF0A428CE8DF0A42E7E
:0202A400FE2238
:1002A600C2D5EC30E709B2D5E4C39DFDE49CFCEE73
:1002B60030E715B2D5E4C39FFFE49EFE1202DCC30D
:1002C600E49DFDE49CFC80031202DC30D507C3E408
:0602D6009FFFE49EFE22E2
:1002DC00BC000BBE0029EF8DF084FFADF022E4CC06
:1002EC00F875F008EF2FFFEE33FEEC33FCEE9DECCF
:1002FC00984005FCEE9DFE0FD5F0E9E4CEFD22ED15
:10030C00F8F5F0EE8420D21CFEADF075F008EF2F5E
:10031C00FFED33FD4007985006D5F0F222C398FD4F
:05032C000FD5F0EA22EC
:00000001FF
