:030000000203C335
:0C03C300787FE4F6D8FD75816202040A20
:10050F000E3768656C6C6F20776F726C64210A0010
:10051F001421300000000000000000000000000067
:10052F000000000000001445300000000000000033
:10053F00000000000000000000000000025D00004D
:10054F00025B00000259000002610000025F000020
:06055F0002350000C1009E
:1005F100A2009290A290B39291A291B392927FF4B1
:020601007E0178
:10060300D3EF9400EE940040147D727C00ED1D70D6
:0D061300011CED4C70F7EF1F70E61E80E338
:0106200022B7
:0E06B700759007C2A0C2A17F647E00020603F8
:1000030075900ED2A0C2A17F267E00120603C2A065
:09001300C2A17F467E0002060333
:10066F0075900CD2A0C2A17F327E00120603C2A0E9
:09067F00C2A17F327E00020603D5
:10068800759008D2A0C2A17F5A7E00120603C2A0AC
:09069800C2A17F0A7E00020603E4
:10062100C2A6E4FEC2A7EF3392A5EF25E0FFD2A751
:100631000EBE08F0E4FEC2A7ED3392A5ED25E0FD64
:08064100D2A70EBE08F0D2A6FC
:01064900228E
:1005B700E4FBFA7D017F0C120621E4FD7F0F120692
:1005C700217DFF7F091206217D077F0B1206217D02
:1005D700047F0A1206210BAF037D091206210BBB0C
:0905E70000010AEB64094A70EE00
:0105F00022E8
:10044F00AE5FAF607C007D0A12029A7F0112062117
:10045F00AE5FAF607C007D0A12029AAD077F021279
:10046F000621AE61AF627C007D0A12029AED2480F4
:10047F00FD7F03120621AE61AF627C007D0A12027E
:10048F009AAD077F041206217D0F7F051206217D8D
:10049F000F7F061206217D0F7F07120621AD5C7FAD
:0404AF000802062118
:1006A100438920758DFD758BFDD28EC29FD29ED25E
:0606B1009CD2AFD2AC2286
:0806D0008F993099FDC29922B7
:10064A008B088A09890AAB08AA09A90A12026F60EB
:10065A0013050AE50A7002050914F912026FFF125E
:05066A0006D080E22231
:03002300020026B2
:10002600C0E0C0F0C0D075D000C000C004C005C09C
:0900360006C00720980302013CFA
:10003F00750B00750C00AF99755D008F5EE55E6402
:10004F005B455D600302013AE55E645D455D6021DD
:10005F007445250CF8A65EC2987F017E0012060338
:10006F00AF99755D008F5E050CE50C70DB050B809D
:10007F00D7AF0C74452FF8765D74462FF87600C213
:10008F0098E54AB430028027E54AB43108755B0021
:10009F00755C018020E54AB43208755B00755C021F
:1000AF008013E54AB43308755B00755C03800675F1
:1000BF005B00755C00E546C39436400875590075C2
:1000CF005A008006755900755A01E55A4559603E28
:1000DF00E54624D0FFE434FFFE7C007D0A1202883F
:1000EF00E54724D0FDEC34FFCD2FF562ED3EF561F1
:1000FF00E54824D0FFE434FFFE7D0A120288E5496B
:10010F0024D0FDEC34FFCD2FF560ED3EF55F750B80
:10011F0000750C137445250CF87600E50C150C7062
:0D012F0002150BE50C450B70EB8002C29829
:10013C00309902C299D007D006D005D004D000D097
:06014C00D0D0F0D0E0323B
:1004B300C2AC75215BAE61AF627C007D0A12029A09
:1004C300EF2430F522AE61AF627C007D0A12029AFE
:1004D300ED2430F523AE5FAF607C007D0A12029AF3
:1004E300EF2430F524AE5FAF607C007D0A12029AE0
:1004F300ED2430F525E55C2430F52675275DE4F51C
:0C05030028FB7A00792112064AD2AC22B3
:0B06C500438901E4F58CF58AD28C22F9
:10032500208D030203C2C28D0536E5367002053500
:10033500640E453560030203C2F535F536E55A45C9
:1003450059607AE55C455B6074E5624561700FE56F
:1003550060455F7009F55BF55CF559F55A22E56274
:1003650045617016D3E5609400E55F648094804034
:1003750009E56015607002155F22D3E5629400E51A
:1003850061648094804014E560455F700EF55F758B
:10039500603BE56215627002156122D3E562940047
:1003A500E561648094804015D3E5609400E55F6461
:0E03B5008094804008E56015607002155F229C
:1001520020B2177F057E0012060320B205E4F55B8C
:10016200F55C30B20302026E80F820B3367F0F7E58
:100172000012060320B324055CE55C7002055BAE49
:100182005BFF7C007D0412029A8C5B8D5CE55C4512
:100192005B7008055CE55C7002055B30B30302022C
:1001A2006E80F830B60302026E7FC87E001206032C
:1001B20030B60302026E20B6071205F1B20080F6D5
:1001C200E4F561F562F55FF56020B60302026E1296
:1001D200044F1205F1B20020B2397F0F7E001206E1
:1001E2000320B22F741E2560F560E4355FF55FE5EC
:1001F20060643C455F701CF55FF5600562E5627006
:10020200020561C3943CE561648094804005E4F595
:1002120061F56220B3437F0F7E0012060320B339DB
:10022200E56245617012E560455F700CF55F7560CF
:100232001EF56175623B8021E560455F700FF55FD9
:1002420075601EE562156270101561800C74E225FE
:1002520060F56074FF355FF55F30B7030201CB7F55
:0D026200147E00120603755900755A012222
:100566001206A11205B71206C5120152E55B7020EC
:10057600E55C14600C14600E146010240370118086
:100586000F120003800D12066F8008120688800382
:100596001206B712044F120325AE35AF367C007D26
:1005A6000212029AED64014C70BFB2901204B3803D
:0105B600B88C
:1003CF00020566E493A3F8E493A34003F68001F2D9
:1003DF0008DFF48029E493A3F85407240CC8C3332F
:1003EF00C4540F4420C8834004F456800146F6DFFE
:1003FF00E4800B010204081020408090050FE47E7A
:10040F00019360BCA3FF543F30E509541FFEE493F2
:10041F00A360010ECF54C025E060A840B8E493A3B9
:10042F00FAE493A3F8E493A3C8C582C8CAC583CAE4
:10043F00F0A3C8C582C8CAC583CADFE9DEE780BE9C
:010565000095
:10026F00BB010689828A83E0225002E722BBFE028D
:09027F00E32289828A83E49322C0
:10028800EF8DF0A4A8F0CF8CF0A428CE8DF0A42E8A
:02029800FE2244
:10029A00C2D5EC30E709B2D5E4C39DFDE49CFCEE7F
:1002AA0030E715B2D5E4C39FFFE49EFE1202D0C325
:1002BA00E49DFDE49CFC80031202D030D507C3E420
:0602CA009FFFE49EFE22EE
:1002D000BC000BBE0029EF8DF084FFADF022E4CC12
:1002E000F875F008EF2FFFEE33FEEC33FCEE9DECDB
:1002F000984005FCEE9DFE0FD5F0E9E4CEFD22ED21
:10030000F8F5F0EE8420D21CFEADF075F008EF2F6A
:10031000FFED33FD4007985006D5F0F222C398FD5B
:050320000FD5F0EA22F8
:00000001FF
