:03000000020103F7
:0C010300787FE4F6D8FD75815002014AB7
:10018F000E0868656C6C6F20776F726C64210A00C3
:10019F0020321630000000000000000000000000B8
:1001AF000000000000000000000000000000000040
:1001BF000000000000000000000000000000000030
:0D01CF000000000000024A0000024800008D
:10000300D3EF9400EE940040147D727C00ED1D70DC
:0D001300011CED4C70F7EF1F70E61E80E33E
:0100200022BD
:1002B100C290C291C292C293C2A0C2A17F647E00C9
:0302C10002000335
:10029900C290D2A0C2A17F1E7E00120003C2A0C2DA
:0802A900A17F467E0002000364
:10024D00C290C291D2A0C2A17F327E00120003C221
:0A025D00A0C2A17F327E0002000360
:10023100C290C291C292D2A0C2A17F5A7E00120086
:0C02410003C2A0C2A17F0A7E00020003DD
:10026700758920758920758DFD758BFDD28EC29F8E
:09027700D29ED29CD2AFD2AC227F
:0802C4008F993099FDC29922C7
:10020C008B4E8A4F8950AB4EAA4FA9501202806078
:10021C00130550E5507002054F14F9120280FF12BD
:05022C0002C480E22283
:03002300020026B2
:10002600C0E0C083C082C0D075D000C000C001C08F
:1000360002C003C004C005C006C007209803020022
:01004600E5D4
:10004700754C00754D00AF99754A008F4BE54B64B1
:1000570021454A60217416254DF8A64BC2987F01A9
:100067007E00120003AF99754A008F4B054DE54D91
:1000770070DB054C80D7AF4D74162FF876217417B7
:100087002FF87600C298E51AB430028027E51AB433
:1000970031087548007549018020E51AB4320875A2
:1000A70048007549028013E51AB43308754800758E
:1000B700490380067548007549007B007A00791668
:1000C70012020C754C00754D317416254DF87600EB
:0E00D700E54D154D7002154CE54D454C70EB96
:1000E500309902C299D007D006D005D004D003D0EC
:0E00F50002D001D000D0D0D082D083D0E03233
:1001DD00120267E5487023E54914600F146011148D
:1001ED006013240370141202B180E812029980E3A7
:0F01FD0012024D80DE12023180D91202B180D47D
:10010F000201DDE493A3F8E493A34003F68001F228
:10011F0008DFF48029E493A3F85407240CC8C333F1
:10012F00C4540F4420C8834004F456800146F6DFC0
:10013F00E4800B010204081020408090018FE47EC0
:10014F00019360BCA3FF543F30E509541FFEE493B5
:10015F00A360010ECF54C025E060A840B8E493A37C
:10016F00FAE493A3F8E493A3C8C582C8CAC583CAA7
:10017F00F0A3C8C582C8CAC583CADFE9DEE780BE5F
:0101DC000022
:10028000BB010689828A83E0225002E722BBFE027C
:09029000E32289828A83E49322AF
:00000001FF
