:030000000203D127
:0C03D100787FE4F6D8FD75816C020418FA
:1004C1000E2368656C6C6F20776F726C64210A0073
:1004D1002032313000000000000000000000000068
:1004E100000000000000000000000000000000000B
:1004F10000000000000000000000000000000000FB
:1005010000000000000267000002650000026300B5
:0F05110000026B00000269000002210000C1001F
:10059600A2009290A290B39291A291B392927FF40C
:0205A6007E01D4
:1005A800D3EF9400EE940040147D727C00ED1D7032
:0D05B800011CED4C70F7EF1F70E61E80E394
:0105C5002213
:0E065C00759007C2A0C2A17F647E000205A8AF
:1000030075900ED2A0C2A17F267E001205A8C2A0C1
:09001300C2A17F467E000205A88F
:1006140075900CD2A0C2A17F327E001205A8C2A0A0
:09062400C2A17F327E000205A88C
:10062D00759008D2A0C2A17F5A7E001205A8C2A063
:09063D00C2A17F0A7E000205A89B
:1005C600C2A6E4FEC2A7EF3392A5EF25E0FFD2A7AD
:1005D6000EBE08F0E4FEC2A7ED3392A5ED25E0FDC0
:0805E600D2A70EBE08F0D2A658
:0105EE0022EA
:10055C00E4FBFA7D017F0C1205C6E4FD7F0F12054A
:10056C00C67DFF7F091205C67D077F0B1205C67D70
:10057C00047F0A1205C60BAF037D091205C60BBB1F
:09058C0000010AEB64094A70EE5B
:010595002243
:10045D00AE69AF6A7C007D0A1202A87F011205C643
:10046D00AE69AF6A7C007D0A1202A8AD077F021249
:10047D0005C6AE6BAF6C7C007D0A1202A8ED248020
:10048D00FD7F031205C6AE6BAF6C7C007D0A1202B8
:10049D00A8AD077F041205C67D0F7F051205C67D29
:1004AD000F7F061205C67D0F7F071205C6AD667F4D
:0404BD00080205C666
:10064600438920758DFD758BFDD28EC29FD29ED2B9
:060656009CD2AFD2AC22E1
:080675008F993099FDC2992212
:1005EF008B0A8A0B890CAB0AAA0BA90C12027D602D
:1005FF0013050CE50C7002050B14F912027DFF12A6
:05060F00067580E222E7
:03002300020026B2
:10002600C0E0C0F0C083C082C0D075D000C000C0A0
:1000360001C002C003C004C005C006C00720980363
:0300460002014074
:10004900750800750900AF997567008F68E56864E0
:10005900214567602174312509F8A668C2987F0196
:100069007E001205A8AF997567008F680509E50933
:1000790070DB050880D7AF0974312FF87621743207
:100089002FF87600C298E535B430028027E535B4FB
:1000990031087565007566018020E535B43208754B
:1000A90065007566028013E535B43308756500751A
:1000B90066038006756500756600E531C3943640B0
:1000C900087563007564008006756300756401E551
:1000D900644563603EE53124D0FFE434FFFE7C00D3
:1000E9007D0A120296E53224D0FDEC34FFCD2FF5BE
:1000F9006CED3EF56BE53324D0FFE434FFFE7D0A59
:10010900120296E53424D0FDEC34FFCD2FF56AEDCB
:100119003EF5697B007A0079311205EF75080075A3
:10012900093174312509F87600E5091509700215B8
:0701390008E509450870EB21
:10014000309902C299D007D006D005D004D003D090
:1001500002D001D000D0D0D082D083D0F0D0E03215
:0B066A00438901E4F58CF58AD28C2254
:10033300208D030203D0C28D0522E5227002052120
:10034300640E452160030203D0F521F522E56445DF
:1003530063607AE56645656074E56C456B700FE52F
:100363006A45697009F565F566F563F56422E56C20
:10037300456B7016D3E56A9400E569648094804008
:1003830009E56A156A7002156922D3E56C9400E5E4
:100393006B648094804014E56A4569700EF5697555
:1003A3006A3BE56C156C7002156B22D3E56C940007
:1003B300E56B648094804015D3E56A9400E5696435
:0E03C3008094804008E56A156A700215692270
:1001600020B2177F057E001205A820B205E4F565D0
:10017000F56630B20302027C80F820B3367F0F7E32
:10018000001205A820B3240566E56670020565AE79
:1001900065FF7C007D041202A88C658D66E56645CE
:1001A0006570080566E5667002056530B3030202F6
:1001B0007C80F830B60302027C7FC87E001205A85E
:1001C00030B60302027C20B607120596B20080F614
:1001D000E4F56BF56CF569F56A20B60302027C1252
:1001E000045D120596B20020B2397F0F7E00120521
:1001F000A820B22F741E256AF56AE43569F569E511
:100200006A643C4569701CF569F56A056CE56C70BB
:1002100002056BC3943CE56B648094804005E4F573
:100220006BF56C20B3437F0F7E001205A820B33915
:10023000E56C456B7012E56A4569700CF569756A85
:100240001EF56B756C3B8021E56A4569700FF56999
:10025000756A1EE56C156C7010156B800C74E225C8
:100260006AF56A74FF3569F56930B7030201D97F11
:0D027000147E001205A8756300756401225C
:1005210012064612055C12066A120160E56570202A
:10053100E56614600C14600E1460102403701180C1
:100541000F120003800D120614800812062D80037D
:0B05510012065C12045D12033380CE22
:1003DD00020521E493A3F8E493A34003F68001F210
:1003ED0008DFF48029E493A3F85407240CC8C33321
:1003FD00C4540F4420C8834004F456800146F6DFF0
:10040D00E4800B01020408102040809004C1E47EBA
:10041D00019360BCA3FF543F30E509541FFEE493E4
:10042D00A360010ECF54C025E060A840B8E493A3AB
:10043D00FAE493A3F8E493A3C8C582C8CAC583CAD6
:10044D00F0A3C8C582C8CAC583CADFE9DEE780BE8E
:0105200000DA
:10027D00BB010689828A83E0225002E722BBFE027F
:09028D00E32289828A83E49322B2
:10029600EF8DF0A4A8F0CF8CF0A428CE8DF0A42E7C
:0202A600FE2236
:1002A800C2D5EC30E709B2D5E4C39DFDE49CFCEE71
:1002B80030E715B2D5E4C39FFFE49EFE1202DEC309
:1002C800E49DFDE49CFC80031202DE30D507C3E404
:0602D8009FFFE49EFE22E0
:1002DE00BC000BBE0029EF8DF084FFADF022E4CC04
:1002EE00F875F008EF2FFFEE33FEEC33FCEE9DECCD
:1002FE00984005FCEE9DFE0FD5F0E9E4CEFD22ED13
:10030E00F8F5F0EE8420D21CFEADF075F008EF2F5C
:10031E00FFED33FD4007985006D5F0F222C398FD4D
:05032E000FD5F0EA22EA
:00000001FF
