:03000000020206F3
:0C020600787FE4F6D8FD75815602024DA9
:100292000E0868656C6C6F20776F726C64210A00BF
:1002A20020321630000000000000000000000000B4
:1002B200000000000000000000000000000000003C
:1002C200000000000000000000000000000000002C
:1002D2000000000000024C0000024A000002480038
:0902E2000002500000024E000071
:040387007F0A7E006B
:10038B00D3EF9400EE940040147D727C00ED1D7051
:0D039B00011CED4C70F7EF1F70E61E80E3B3
:0103A8002232
:1003F400C290C291C292C293C2A0C2A17F647E0085
:0304040002038B65
:1003DC00C290D2A0C2A17F267E0012038BC2A0C203
:0803EC00A17F467E0002038B95
:1003A900C290C291D2A0C2A17F327E0012038BC239
:0A03B900A0C2A17F327E0002038B78
:10000300C290C291C292D2A0C2A17F5A7E001203B3
:0C0013008BC2A0C2A17F0A7E0002038BFA
:1003C300758920758920758DFD758BFDD28EC29F31
:0903D300D29ED29CD2AFD2AC2222
:080407008F993099FDC2992282
:100362008B548A558956AB54AA55A956120150602E
:10037200130556E5567002055514F9120150FF1285
:05038200040780E222E7
:03002300020026B2
:10002600C0E0C0F0C083C082C0D075D000C000C0A0
:1000360001C002C003C004C005C006C00720980363
:0300460002013084
:10004900755200755300AF99754C008F4DE54D649D
:1000590021454C602174162553F8A64DC2987F019D
:100069007E0012038BAF99754C008F4D0553E553F4
:1000790070DB055280D7AF5374162FF876217417A9
:100089002FF87600C298E51AB430028027E51AB431
:100099003108754A00754B018020E51AB43208759C
:1000A9004A00754B028013E51AB43308754A007586
:1000B9004B038006754A00754B00E516D39436400C
:1000C900087548007549008006754800754901E5BD
:1000D900494548602EE51624D0FFE434FFFE7C0034
:1000E9007D0A120169EF2517F551EC3EF550E51827
:1000F90024D0FFE434FFFE120169EF2519F54FEC16
:100109003EF54E7B007A007916120362755200752E
:10011900533174162553F87600E5531553700215BB
:0701290052E553455270EB53
:10013000309902C299D007D006D005D004D003D0A0
:1001400002D001D000D0D0D082D083D0F0D0E03225
:1002EC0020B20C12038720B23AE4F54AF54B2220D7
:1002FC00B32B12038720B32B054BE54B7002054A39
:10030C00AE4AFF7C007D0412017B8C4A8D4BE54B81
:10031C00454A700F054BE54B7009054A2220B60380
:04032C00120387220F
:100330001203C31202ECE54A7023E54B14600F145C
:100340006011146013240370141203F480E5120387
:10035000DC80E01203A980DB12000380D61203F4D4
:0203600080D14A
:10021200020330E493A3F8E493A34003F68001F2CF
:1002220008DFF48029E493A3F85407240CC8C333ED
:10023200C4540F4420C8834004F456800146F6DFBC
:10024200E4800B0102040810204080900292E47EB8
:10025200019360BCA3FF543F30E509541FFEE493B1
:10026200A360010ECF54C025E060A840B8E493A378
:10027200FAE493A3F8E493A3C8C582C8CAC583CAA3
:10028200F0A3C8C582C8CAC583CADFE9DEE780BE5B
:0102EB000012
:10015000BB010689828A83E0225002E722BBFE02AD
:09016000E32289828A83E49322E0
:10016900EF8DF0A4A8F0CF8CF0A428CE8DF0A42EAA
:02017900FE2264
:10017B00C2D5EC30E709B2D5E4C39DFDE49CFCEE9F
:10018B0030E715B2D5E4C39FFFE49EFE1201B1C365
:10019B00E49DFDE49CFC80031201B130D507C3E460
:0601AB009FFFE49EFE220E
:1001B100BC000BBE0029EF8DF084FFADF022E4CC32
:1001C100F875F008EF2FFFEE33FEEC33FCEE9DECFB
:1001D100984005FCEE9DFE0FD5F0E9E4CEFD22ED41
:1001E100F8F5F0EE8420D21CFEADF075F008EF2F8B
:1001F100FFED33FD4007985006D5F0F222C398FD7C
:050201000FD5F0EA2218
:00000001FF
