:030000000202AE4B
:0C02AE00787FE4F6D8FD75815A0202F555
:100401000E0A68656C6C6F20776F726C64210A004C
:100411002032183000000000000000000000000041
:1004210000000000000000000000000000000000CB
:1004310000000000000000000000000000000000BB
:100441000000000000024E0000024C0000024A00C1
:100451000002540000025200000208000002500095
:01046100009A
:10000300D3EF9400EE940040147D727C00ED1D70DC
:0D001300011CED4C70F7EF1F70E61E80E33E
:0100200022BD
:0E058700759007C2A0C2A17F647E000200032F
:1005260075900ED2A0C2A17F267E00120003C2A043
:09053600C2A17F467E0002000311
:10053F0075900CD2A0C2A17F327E00120003C2A020
:09054F00C2A17F327E000200030C
:10055800759008D2A0C2A17F5A7E00120003C2A0E3
:09056800C2A17F0A7E000200031B
:1004D800C2A6E4FEC2A7EF3392A5EF25E0FFD2A79C
:1004E8000EBE08F0E4FEC2A7ED3392A5ED25E0FDAF
:0804F800D2A70EBE08F0D2A647
:0105000022D8
:10049E00E4FBFA7D017F0C1204D8E4FD7F0F1204F9
:1004AE00D87DFF7F091204D87D077F0B1204D87DFB
:1004BE00047F0A1204D80BAF037D091204D80BBBBC
:0904CE0000010AEB64094A70EE1A
:0104D7002202
:10033A00AE52AF537C007D0A12018B7F011204D8A2
:10034A00AE52AF537C007D0A12018BAD077F0212B9
:10035A0004D8AE54AF557C007D0A12018BED24807F
:10036A00FD7F031204D8AE54AF557C007D0A1201FA
:10037A008BAD077F041204D87D0F7F051204D87D48
:10038A000F7F061204D87D0F7F071204D8AD4D7F68
:04039A00080204D879
:10057100438920758DFD758BFDD28EC29FD29ED28F
:060581009CD2AFD2AC22B7
:0805A0008F993099FDC29922E8
:100501008B588A59895AAB58AA59A95A1201606065
:1005110013055AE55A7002055914F9120160FF12C8
:0505210005A080E222AC
:03002300020026B2
:10002600C0E0C0F0C083C082C0D075D000C000C0A0
:1000360001C002C003C004C005C006C00720980363
:0300460002014074
:10004900755600755700AF99754E008F4FE54F648F
:1000590021454E602174182557F8A64FC2987F0193
:100069007E00120003AF99754E008F4F0557E55773
:1000790070DB055680D7AF5774182FF8762174199D
:100089002FF87600C298E51CB430028027E51CB42D
:100099003108754C00754D018020E51CB432087596
:1000A9004C00754D028013E51CB43308754C00757E
:1000B9004D038006754C00754D00E518C394364014
:1000C90008754A00754B008006754A00754B01E5B5
:1000D9004B454A603EE51824D0FFE434FFFE7C001E
:1000E9007D0A120179E51924D0FDEC34FFCD2FF5F5
:1000F90055ED3EF554E51A24D0FFE434FFFE7D0AA0
:10010900120179E51B24D0FDEC34FFCD2FF553ED19
:100119003EF5527B007A0079181205017556007573
:10012900573174182557F87600E557155770021599
:0701390056E557455670EB37
:10014000309902C299D007D006D005D004D003D090
:1001500002D001D000D0D0D082D083D0F0D0E03215
:0B059500438901E4F58CF58AD28C222A
:10021600208D030202ADC28D0509E50970020508AD
:10022600640E450860030202ADF508F509E54B4585
:100236004A6074E5554554700FE55345527009F50B
:100246004CF54DF54AF54B22E55545547016D3E568
:10025600539400E552648094804009E55315537029
:1002660002155222D3E5559400E5546480948040EB
:1002760014E5534552700EF55275533BE555155529
:100286007002155422D3E5559400E5546480948099
:100296004015D3E5539400E552648094804008E508
:0802A60053155370021552229A
:10039E0020B2147F057E0012000320B205E4F54C56
:1003AE00F54D20B24D80FB20B3337F0A7E00120044
:1003BE000320B324054DE54D7002054CAE4CFF7C79
:1003CE00007D0412018B8C4C8D4DE54D454C700813
:1003DE00054DE54D7002054C20B31780FB20B6127B
:1003EE007F147E0012000320B608E550455124FF0D
:0303FE00929322B5
:1004630012057112049E12059512039EE54C70202D
:10047300E54D14600C14600E146010240370118099
:100483000F120526800D12053F80081205588003C0
:0B04930012058712033A12021680CEF9
:1002BA00020463E493A3F8E493A34003F68001F2F3
:1002CA0008DFF48029E493A3F85407240CC8C33345
:1002DA00C4540F4420C8834004F456800146F6DF14
:1002EA00E4800B0102040810204080900401E47E9F
:1002FA00019360BCA3FF543F30E509541FFEE49309
:10030A00A360010ECF54C025E060A840B8E493A3CF
:10031A00FAE493A3F8E493A3C8C582C8CAC583CAFA
:10032A00F0A3C8C582C8CAC583CADFE9DEE780BEB2
:010462000099
:10016000BB010689828A83E0225002E722BBFE029D
:09017000E32289828A83E49322D0
:10017900EF8DF0A4A8F0CF8CF0A428CE8DF0A42E9A
:02018900FE2254
:10018B00C2D5EC30E709B2D5E4C39DFDE49CFCEE8F
:10019B0030E715B2D5E4C39FFFE49EFE1201C1C345
:1001AB00E49DFDE49CFC80031201C130D507C3E440
:0601BB009FFFE49EFE22FE
:1001C100BC000BBE0029EF8DF084FFADF022E4CC22
:1001D100F875F008EF2FFFEE33FEEC33FCEE9DECEB
:1001E100984005FCEE9DFE0FD5F0E9E4CEFD22ED31
:1001F100F8F5F0EE8420D21CFEADF075F008EF2F7B
:10020100FFED33FD4007985006D5F0F222C398FD6B
:050211000FD5F0EA2208
:00000001FF
